{
  "contractName": "CryptoBirds",
  "abi": [
    {
      "inputs": [],
      "stateMutability": "nonpayable",
      "type": "constructor"
    },
    {
      "anonymous": false,
      "inputs": [
        {
          "indexed": true,
          "internalType": "address",
          "name": "owner",
          "type": "address"
        },
        {
          "indexed": true,
          "internalType": "address",
          "name": "approved",
          "type": "address"
        },
        {
          "indexed": true,
          "internalType": "uint256",
          "name": "tokenId",
          "type": "uint256"
        }
      ],
      "name": "Approval",
      "type": "event"
    },
    {
      "anonymous": false,
      "inputs": [
        {
          "indexed": true,
          "internalType": "address",
          "name": "owner",
          "type": "address"
        },
        {
          "indexed": true,
          "internalType": "address",
          "name": "operator",
          "type": "address"
        },
        {
          "indexed": false,
          "internalType": "bool",
          "name": "approved",
          "type": "bool"
        }
      ],
      "name": "ApprovalForAll",
      "type": "event"
    },
    {
      "anonymous": false,
      "inputs": [
        {
          "indexed": true,
          "internalType": "uint256",
          "name": "tokenId",
          "type": "uint256"
        }
      ],
      "name": "CryptoBirdAvailableForSale",
      "type": "event"
    },
    {
      "anonymous": false,
      "inputs": [
        {
          "indexed": true,
          "internalType": "uint256",
          "name": "tokenId",
          "type": "uint256"
        }
      ],
      "name": "NewCryptoBird",
      "type": "event"
    },
    {
      "anonymous": false,
      "inputs": [
        {
          "indexed": true,
          "internalType": "address",
          "name": "previousOwner",
          "type": "address"
        },
        {
          "indexed": true,
          "internalType": "address",
          "name": "newOwner",
          "type": "address"
        }
      ],
      "name": "OwnershipTransferred",
      "type": "event"
    },
    {
      "anonymous": false,
      "inputs": [
        {
          "indexed": true,
          "internalType": "address",
          "name": "from",
          "type": "address"
        },
        {
          "indexed": true,
          "internalType": "address",
          "name": "to",
          "type": "address"
        },
        {
          "indexed": true,
          "internalType": "uint256",
          "name": "tokenId",
          "type": "uint256"
        }
      ],
      "name": "Transfer",
      "type": "event"
    },
    {
      "inputs": [
        {
          "internalType": "address",
          "name": "to",
          "type": "address"
        },
        {
          "internalType": "uint256",
          "name": "tokenId",
          "type": "uint256"
        }
      ],
      "name": "approve",
      "outputs": [],
      "stateMutability": "nonpayable",
      "type": "function"
    },
    {
      "inputs": [
        {
          "internalType": "address",
          "name": "owner",
          "type": "address"
        }
      ],
      "name": "balanceOf",
      "outputs": [
        {
          "internalType": "uint256",
          "name": "",
          "type": "uint256"
        }
      ],
      "stateMutability": "view",
      "type": "function",
      "constant": true
    },
    {
      "inputs": [],
      "name": "baseURI",
      "outputs": [
        {
          "internalType": "string",
          "name": "",
          "type": "string"
        }
      ],
      "stateMutability": "view",
      "type": "function",
      "constant": true
    },
    {
      "inputs": [
        {
          "internalType": "uint256",
          "name": "",
          "type": "uint256"
        }
      ],
      "name": "birds",
      "outputs": [
        {
          "internalType": "uint32",
          "name": "gene",
          "type": "uint32"
        },
        {
          "internalType": "uint256",
          "name": "birth",
          "type": "uint256"
        },
        {
          "internalType": "uint16",
          "name": "generation",
          "type": "uint16"
        },
        {
          "internalType": "uint256",
          "name": "price",
          "type": "uint256"
        }
      ],
      "stateMutability": "view",
      "type": "function",
      "constant": true
    },
    {
      "inputs": [
        {
          "internalType": "uint256",
          "name": "",
          "type": "uint256"
        }
      ],
      "name": "generationsPopulation",
      "outputs": [
        {
          "internalType": "uint256",
          "name": "",
          "type": "uint256"
        }
      ],
      "stateMutability": "view",
      "type": "function",
      "constant": true
    },
    {
      "inputs": [
        {
          "internalType": "uint256",
          "name": "tokenId",
          "type": "uint256"
        }
      ],
      "name": "getApproved",
      "outputs": [
        {
          "internalType": "address",
          "name": "",
          "type": "address"
        }
      ],
      "stateMutability": "view",
      "type": "function",
      "constant": true
    },
    {
      "inputs": [
        {
          "internalType": "address",
          "name": "owner",
          "type": "address"
        },
        {
          "internalType": "address",
          "name": "operator",
          "type": "address"
        }
      ],
      "name": "isApprovedForAll",
      "outputs": [
        {
          "internalType": "bool",
          "name": "",
          "type": "bool"
        }
      ],
      "stateMutability": "view",
      "type": "function",
      "constant": true
    },
    {
      "inputs": [],
      "name": "name",
      "outputs": [
        {
          "internalType": "string",
          "name": "",
          "type": "string"
        }
      ],
      "stateMutability": "view",
      "type": "function",
      "constant": true
    },
    {
      "inputs": [],
      "name": "owner",
      "outputs": [
        {
          "internalType": "address",
          "name": "",
          "type": "address"
        }
      ],
      "stateMutability": "view",
      "type": "function",
      "constant": true
    },
    {
      "inputs": [
        {
          "internalType": "uint256",
          "name": "tokenId",
          "type": "uint256"
        }
      ],
      "name": "ownerOf",
      "outputs": [
        {
          "internalType": "address",
          "name": "",
          "type": "address"
        }
      ],
      "stateMutability": "view",
      "type": "function",
      "constant": true
    },
    {
      "inputs": [],
      "name": "renounceOwnership",
      "outputs": [],
      "stateMutability": "nonpayable",
      "type": "function"
    },
    {
      "inputs": [
        {
          "internalType": "address",
          "name": "from",
          "type": "address"
        },
        {
          "internalType": "address",
          "name": "to",
          "type": "address"
        },
        {
          "internalType": "uint256",
          "name": "tokenId",
          "type": "uint256"
        }
      ],
      "name": "safeTransferFrom",
      "outputs": [],
      "stateMutability": "nonpayable",
      "type": "function"
    },
    {
      "inputs": [
        {
          "internalType": "address",
          "name": "from",
          "type": "address"
        },
        {
          "internalType": "address",
          "name": "to",
          "type": "address"
        },
        {
          "internalType": "uint256",
          "name": "tokenId",
          "type": "uint256"
        },
        {
          "internalType": "bytes",
          "name": "_data",
          "type": "bytes"
        }
      ],
      "name": "safeTransferFrom",
      "outputs": [],
      "stateMutability": "nonpayable",
      "type": "function"
    },
    {
      "inputs": [
        {
          "internalType": "address",
          "name": "operator",
          "type": "address"
        },
        {
          "internalType": "bool",
          "name": "approved",
          "type": "bool"
        }
      ],
      "name": "setApprovalForAll",
      "outputs": [],
      "stateMutability": "nonpayable",
      "type": "function"
    },
    {
      "inputs": [],
      "name": "start",
      "outputs": [
        {
          "internalType": "bool",
          "name": "",
          "type": "bool"
        }
      ],
      "stateMutability": "nonpayable",
      "type": "function"
    },
    {
      "inputs": [],
      "name": "stop",
      "outputs": [
        {
          "internalType": "bool",
          "name": "",
          "type": "bool"
        }
      ],
      "stateMutability": "nonpayable",
      "type": "function"
    },
    {
      "inputs": [],
      "name": "stopped",
      "outputs": [
        {
          "internalType": "bool",
          "name": "",
          "type": "bool"
        }
      ],
      "stateMutability": "view",
      "type": "function",
      "constant": true
    },
    {
      "inputs": [
        {
          "internalType": "bytes4",
          "name": "interfaceId",
          "type": "bytes4"
        }
      ],
      "name": "supportsInterface",
      "outputs": [
        {
          "internalType": "bool",
          "name": "",
          "type": "bool"
        }
      ],
      "stateMutability": "view",
      "type": "function",
      "constant": true
    },
    {
      "inputs": [],
      "name": "symbol",
      "outputs": [
        {
          "internalType": "string",
          "name": "",
          "type": "string"
        }
      ],
      "stateMutability": "view",
      "type": "function",
      "constant": true
    },
    {
      "inputs": [
        {
          "internalType": "uint256",
          "name": "index",
          "type": "uint256"
        }
      ],
      "name": "tokenByIndex",
      "outputs": [
        {
          "internalType": "uint256",
          "name": "",
          "type": "uint256"
        }
      ],
      "stateMutability": "view",
      "type": "function",
      "constant": true
    },
    {
      "inputs": [
        {
          "internalType": "address",
          "name": "owner",
          "type": "address"
        },
        {
          "internalType": "uint256",
          "name": "index",
          "type": "uint256"
        }
      ],
      "name": "tokenOfOwnerByIndex",
      "outputs": [
        {
          "internalType": "uint256",
          "name": "",
          "type": "uint256"
        }
      ],
      "stateMutability": "view",
      "type": "function",
      "constant": true
    },
    {
      "inputs": [
        {
          "internalType": "uint256",
          "name": "tokenId",
          "type": "uint256"
        }
      ],
      "name": "tokenURI",
      "outputs": [
        {
          "internalType": "string",
          "name": "",
          "type": "string"
        }
      ],
      "stateMutability": "view",
      "type": "function",
      "constant": true
    },
    {
      "inputs": [],
      "name": "totalSupply",
      "outputs": [
        {
          "internalType": "uint256",
          "name": "",
          "type": "uint256"
        }
      ],
      "stateMutability": "view",
      "type": "function",
      "constant": true
    },
    {
      "inputs": [
        {
          "internalType": "address",
          "name": "from",
          "type": "address"
        },
        {
          "internalType": "address",
          "name": "to",
          "type": "address"
        },
        {
          "internalType": "uint256",
          "name": "tokenId",
          "type": "uint256"
        }
      ],
      "name": "transferFrom",
      "outputs": [],
      "stateMutability": "nonpayable",
      "type": "function"
    },
    {
      "inputs": [
        {
          "internalType": "address",
          "name": "newOwner",
          "type": "address"
        }
      ],
      "name": "transferOwnership",
      "outputs": [],
      "stateMutability": "nonpayable",
      "type": "function"
    },
    {
      "inputs": [
        {
          "internalType": "uint256",
          "name": "_tokenId",
          "type": "uint256"
        }
      ],
      "name": "buy",
      "outputs": [],
      "stateMutability": "payable",
      "type": "function",
      "payable": true
    },
    {
      "inputs": [
        {
          "internalType": "uint256",
          "name": "_firstBirdTokenId",
          "type": "uint256"
        },
        {
          "internalType": "uint256",
          "name": "_secondBirdTokenId",
          "type": "uint256"
        }
      ],
      "name": "breed",
      "outputs": [
        {
          "internalType": "uint256",
          "name": "",
          "type": "uint256"
        }
      ],
      "stateMutability": "nonpayable",
      "type": "function"
    },
    {
      "inputs": [
        {
          "internalType": "uint256",
          "name": "_tokenId",
          "type": "uint256"
        },
        {
          "internalType": "uint256",
          "name": "_price",
          "type": "uint256"
        }
      ],
      "name": "setForSale",
      "outputs": [],
      "stateMutability": "nonpayable",
      "type": "function"
    },
    {
      "inputs": [
        {
          "internalType": "address payable",
          "name": "_desiredAddress",
          "type": "address"
        }
      ],
      "name": "redeemAllBalance",
      "outputs": [],
      "stateMutability": "nonpayable",
      "type": "function"
    }
  ],
  "bytecode": "0x60806040523480156200001157600080fd5b506040518060400160405280600b81526020017f43727970746f42697264730000000000000000000000000000000000000000008152506040518060400160405280600581526020017f4342524453000000000000000000000000000000000000000000000000000000815250620000966301ffc9a760e01b6200031960201b60201c565b8160069080519060200190620000ae92919062000b80565b508060079080519060200190620000c792919062000b80565b50620000e06380ac58cd60e01b6200031960201b60201c565b620000f8635b5e139f60e01b6200031960201b60201c565b6200011063780e9d6360e01b6200031960201b60201c565b50506000620001246200042260201b60201c565b905080600a60006101000a81548173ffffffffffffffffffffffffffffffffffffffff021916908373ffffffffffffffffffffffffffffffffffffffff1602179055508073ffffffffffffffffffffffffffffffffffffffff16600073ffffffffffffffffffffffffffffffffffffffff167f8be0079c531659141344cd1fd0a4f28419497f9722a3daafe3b4186f6b6457e060405160405180910390a350600c620001d760006200042a60201b60201c565b9080600181540180825580915050600190039060005260206000200160009091909190915055620002116000601e6200046b60201b60201c565b5060004360405160200180807f47656e65736973000000000000000000000000000000000000000000000000008152506007018281526020019150506040516020818303038152906040528051906020012060001c905060005b601e811015620003115760006200029e3084436000620002926000620004c460201b60201c565b6200053e60201b60201c565b9050807f7085b73bda2d80ec705825a983c6c1ad6e82fd5ac2d3d1079e05a0d8962ec1a260405160405180910390a282604051602001808263ffffffff1660e01b81526004019150506040516020818303038152906040528051906020012060001c92505080806001019150506200026b565b505062000c68565b63ffffffff60e01b817bffffffffffffffffffffffffffffffffffffffffffffffffffffffff19161415620003b6576040517f08c379a000000000000000000000000000000000000000000000000000000000815260040180806020018281038252601c8152602001807f4552433136353a20696e76616c696420696e746572666163652069640000000081525060200191505060405180910390fd5b6001600080837bffffffffffffffffffffffffffffffffffffffffffffffffffffffff19167bffffffffffffffffffffffffffffffffffffffffffffffffffffffff1916815260200190815260200160002060006101000a81548160ff02191690831515021790555050565b600033905090565b60008060068361ffff16816200043c57fe5b0661ffff16905060008114156200045857601e91505062000466565b60028102600c03601e029150505b919050565b60006200047f83836200068660201b60201c565b15620004b95781600c8461ffff16815481106200049857fe5b906000526020600020016000828254039250508190555060019050620004be565b600090505b92915050565b6000806000905060006611c37937e080009050600060068561ffff1681620004e857fe5b0661ffff1690506000811415620005045781830192506200051a565b60028102600c0382816200051457fe5b04830192505b8461ffff166509184e72a0000265ffffffffffff1683019250829350505050919050565b6000600a60149054906101000a900460ff16156200055b57600080fd5b62000572600b620006ff60201b6200294f1760201c565b60006200058b600b6200071560201b620029651760201c565b90506200059f87826200072360201b60201c565b620005a962000c17565b60405180608001604052808863ffffffff1681526020018781526020018661ffff16815260200185815250905080600d600084815260200190815260200160002060008201518160000160006101000a81548163ffffffff021916908363ffffffff1602179055506020820151816001015560408201518160020160006101000a81548161ffff021916908361ffff16021790555060608201518160030155905050817f713ad25e84dd3b7e8337a7521bf97d01dd45f186d9cf6079c980eb5e7ccfb22760405160405180910390a2819250505095945050505050565b60006001600c80549050038361ffff161115620006d757600c620006b0846200042a60201b60201c565b90806001815401808255809150506001900390600052602060002001600090919091909150555b81600c8461ffff1681548110620006ea57fe5b90600052602060002001541015905092915050565b6001816000016000828254019250508190555050565b600081600001549050919050565b600073ffffffffffffffffffffffffffffffffffffffff168273ffffffffffffffffffffffffffffffffffffffff161415620007c7576040517f08c379a00000000000000000000000000000000000000000000000000000000081526004018080602001828103825260208152602001807f4552433732313a206d696e7420746f20746865207a65726f206164647265737381525060200191505060405180910390fd5b620007d8816200093760201b60201c565b156200084c576040517f08c379a000000000000000000000000000000000000000000000000000000000815260040180806020018281038252601c8152602001807f4552433732313a20746f6b656e20616c7265616479206d696e7465640000000081525060200191505060405180910390fd5b62000860600083836200095b60201b60201c565b620008b881600160008573ffffffffffffffffffffffffffffffffffffffff1673ffffffffffffffffffffffffffffffffffffffff1681526020019081526020016000206200096060201b620029731790919060201c565b50620008d6818360026200098260201b6200298d179092919060201c565b50808273ffffffffffffffffffffffffffffffffffffffff16600073ffffffffffffffffffffffffffffffffffffffff167fddf252ad1be2c89b69c2b068fc378daa952ba7f163c4a11628f55a4df523b3ef60405160405180910390a45050565b600062000954826002620009bf60201b620029c21790919060201c565b9050919050565b505050565b60006200097a836000018360001b620009e160201b60201c565b905092915050565b6000620009b6846000018460001b8473ffffffffffffffffffffffffffffffffffffffff1660001b62000a5b60201b60201c565b90509392505050565b6000620009d9836000018360001b62000b3a60201b60201c565b905092915050565b6000620009f5838362000b5d60201b60201c565b62000a5057826000018290806001815401808255809150506001900390600052602060002001600090919091909150558260000180549050836001016000848152602001908152602001600020819055506001905062000a55565b600090505b92915050565b600080846001016000858152602001908152602001600020549050600081141562000b045784600001604051806040016040528086815260200185815250908060018154018082558091505060019003906000526020600020906002020160009091909190915060008201518160000155602082015181600101555050846000018054905085600101600086815260200190815260200160002081905550600191505062000b33565b8285600001600183038154811062000b1857fe5b90600052602060002090600202016001018190555060009150505b9392505050565b600080836001016000848152602001908152602001600020541415905092915050565b600080836001016000848152602001908152602001600020541415905092915050565b828054600181600116156101000203166002900490600052602060002090601f01602090048101928262000bb8576000855562000c04565b82601f1062000bd357805160ff191683800117855562000c04565b8280016001018555821562000c04579182015b8281111562000c0357825182559160200191906001019062000be6565b5b50905062000c13919062000c49565b5090565b6040518060800160405280600063ffffffff16815260200160008152602001600061ffff168152602001600081525090565b5b8082111562000c6457600081600090555060010162000c4a565b5090565b61432e8062000c786000396000f3fe6080604052600436106101c25760003560e01c80636c0360eb116100f7578063b88d4fde11610095578063d9ecad7b11610064578063d9ecad7b14610b65578063e985e9c514610bbe578063ec1c595514610c45578063f2fde38b14610cb3576101c2565b8063b88d4fde14610944578063be9a655514610a56578063c87b56dd14610a83578063d96a094a14610b37576101c2565b806375f12b21116100d157806375f12b21146107e95780638da5cb5b1461081657806395d89b4114610857578063a22cb465146108e7576101c2565b80636c0360eb146106dd57806370a082311461076d578063715018a6146107d2576101c2565b806323b872dd1161016457806342842e0e1161013e57806342842e0e1461055d5780634da30b19146105d85780634f6ccce7146106295780636352211e14610678576101c2565b806323b872dd1461042457806329cc088e1461049f5780632f745c59146104ee576101c2565b8063081812fc116101a0578063081812fc146102f4578063095ea7b31461035957806317fcfe22146103b457806318160ddd146103f9576101c2565b806301ffc9a7146101c757806306fdde031461023757806307da68f5146102c7575b600080fd5b3480156101d357600080fd5b5061021f600480360360208110156101ea57600080fd5b8101908080357bffffffffffffffffffffffffffffffffffffffffffffffffffffffff19169060200190929190505050610d04565b60405180821515815260200191505060405180910390f35b34801561024357600080fd5b5061024c610d6b565b6040518080602001828103825283818151815260200191508051906020019080838360005b8381101561028c578082015181840152602081019050610271565b50505050905090810190601f1680156102b95780820380516001836020036101000a031916815260200191505b509250505060405180910390f35b3480156102d357600080fd5b506102dc610e0d565b60405180821515815260200191505060405180910390f35b34801561030057600080fd5b5061032d6004803603602081101561031757600080fd5b8101908080359060200190929190505050610f09565b604051808273ffffffffffffffffffffffffffffffffffffffff16815260200191505060405180910390f35b34801561036557600080fd5b506103b26004803603604081101561037c57600080fd5b81019080803573ffffffffffffffffffffffffffffffffffffffff16906020019092919080359060200190929190505050610fa4565b005b3480156103c057600080fd5b506103f7600480360360408110156103d757600080fd5b8101908080359060200190929190803590602001909291905050506110e8565b005b34801561040557600080fd5b5061040e6112d5565b6040518082815260200191505060405180910390f35b34801561043057600080fd5b5061049d6004803603606081101561044757600080fd5b81019080803573ffffffffffffffffffffffffffffffffffffffff169060200190929190803573ffffffffffffffffffffffffffffffffffffffff169060200190929190803590602001909291905050506112e6565b005b3480156104ab57600080fd5b506104d8600480360360208110156104c257600080fd5b810190808035906020019092919050505061135c565b6040518082815260200191505060405180910390f35b3480156104fa57600080fd5b506105476004803603604081101561051157600080fd5b81019080803573ffffffffffffffffffffffffffffffffffffffff16906020019092919080359060200190929190505050611380565b6040518082815260200191505060405180910390f35b34801561056957600080fd5b506105d66004803603606081101561058057600080fd5b81019080803573ffffffffffffffffffffffffffffffffffffffff169060200190929190803573ffffffffffffffffffffffffffffffffffffffff169060200190929190803590602001909291905050506113db565b005b3480156105e457600080fd5b50610627600480360360208110156105fb57600080fd5b81019080803573ffffffffffffffffffffffffffffffffffffffff1690602001909291905050506113fb565b005b34801561063557600080fd5b506106626004803603602081101561064c57600080fd5b810190808035906020019092919050505061150f565b6040518082815260200191505060405180910390f35b34801561068457600080fd5b506106b16004803603602081101561069b57600080fd5b8101908080359060200190929190505050611532565b604051808273ffffffffffffffffffffffffffffffffffffffff16815260200191505060405180910390f35b3480156106e957600080fd5b506106f2611569565b6040518080602001828103825283818151815260200191508051906020019080838360005b83811015610732578082015181840152602081019050610717565b50505050905090810190601f16801561075f5780820380516001836020036101000a031916815260200191505b509250505060405180910390f35b34801561077957600080fd5b506107bc6004803603602081101561079057600080fd5b81019080803573ffffffffffffffffffffffffffffffffffffffff16906020019092919050505061160b565b6040518082815260200191505060405180910390f35b3480156107de57600080fd5b506107e76116e0565b005b3480156107f557600080fd5b506107fe61186b565b60405180821515815260200191505060405180910390f35b34801561082257600080fd5b5061082b61187e565b604051808273ffffffffffffffffffffffffffffffffffffffff16815260200191505060405180910390f35b34801561086357600080fd5b5061086c6118a8565b6040518080602001828103825283818151815260200191508051906020019080838360005b838110156108ac578082015181840152602081019050610891565b50505050905090810190601f1680156108d95780820380516001836020036101000a031916815260200191505b509250505060405180910390f35b3480156108f357600080fd5b506109426004803603604081101561090a57600080fd5b81019080803573ffffffffffffffffffffffffffffffffffffffff16906020019092919080351515906020019092919050505061194a565b005b34801561095057600080fd5b50610a546004803603608081101561096757600080fd5b81019080803573ffffffffffffffffffffffffffffffffffffffff169060200190929190803573ffffffffffffffffffffffffffffffffffffffff16906020019092919080359060200190929190803590602001906401000000008111156109ce57600080fd5b8201836020820111156109e057600080fd5b80359060200191846001830284011164010000000083111715610a0257600080fd5b91908080601f016020809104026020016040519081016040528093929190818152602001838380828437600081840152601f19601f820116905080830192505050505050509192919290505050611b00565b005b348015610a6257600080fd5b50610a6b611b78565b60405180821515815260200191505060405180910390f35b348015610a8f57600080fd5b50610abc60048036036020811015610aa657600080fd5b8101908080359060200190929190505050611c74565b6040518080602001828103825283818151815260200191508051906020019080838360005b83811015610afc578082015181840152602081019050610ae1565b50505050905090810190601f168015610b295780820380516001836020036101000a031916815260200191505b509250505060405180910390f35b610b6360048036036020811015610b4d57600080fd5b8101908080359060200190929190505050611f5d565b005b348015610b7157600080fd5b50610ba860048036036040811015610b8857600080fd5b81019080803590602001909291908035906020019092919050505061224b565b6040518082815260200191505060405180910390f35b348015610bca57600080fd5b50610c2d60048036036040811015610be157600080fd5b81019080803573ffffffffffffffffffffffffffffffffffffffff169060200190929190803573ffffffffffffffffffffffffffffffffffffffff16906020019092919050505061265d565b60405180821515815260200191505060405180910390f35b348015610c5157600080fd5b50610c7e60048036036020811015610c6857600080fd5b81019080803590602001909291905050506126f1565b604051808563ffffffff1681526020018481526020018361ffff16815260200182815260200194505050505060405180910390f35b348015610cbf57600080fd5b50610d0260048036036020811015610cd657600080fd5b81019080803573ffffffffffffffffffffffffffffffffffffffff16906020019092919050505061273f565b005b6000806000837bffffffffffffffffffffffffffffffffffffffffffffffffffffffff19167bffffffffffffffffffffffffffffffffffffffffffffffffffffffff1916815260200190815260200160002060009054906101000a900460ff169050919050565b606060068054600181600116156101000203166002900480601f016020809104026020016040519081016040528092919081815260200182805460018160011615610100020316600290048015610e035780601f10610dd857610100808354040283529160200191610e03565b820191906000526020600020905b815481529060010190602001808311610de657829003601f168201915b5050505050905090565b6000610e176129dc565b73ffffffffffffffffffffffffffffffffffffffff16600a60009054906101000a900473ffffffffffffffffffffffffffffffffffffffff1673ffffffffffffffffffffffffffffffffffffffff1614610ed9576040517f08c379a00000000000000000000000000000000000000000000000000000000081526004018080602001828103825260208152602001807f4f776e61626c653a2063616c6c6572206973206e6f7420746865206f776e657281525060200191505060405180910390fd5b6001600a60146101000a81548160ff021916908315150217905550600a60149054906101000a900460ff16905090565b6000610f14826129e4565b610f69576040517f08c379a000000000000000000000000000000000000000000000000000000000815260040180806020018281038252602c815260200180614202602c913960400191505060405180910390fd5b6004600083815260200190815260200160002060009054906101000a900473ffffffffffffffffffffffffffffffffffffffff169050919050565b6000610faf82611532565b90508073ffffffffffffffffffffffffffffffffffffffff168373ffffffffffffffffffffffffffffffffffffffff161415611036576040517f08c379a00000000000000000000000000000000000000000000000000000000081526004018080602001828103825260218152602001806142a76021913960400191505060405180910390fd5b8073ffffffffffffffffffffffffffffffffffffffff166110556129dc565b73ffffffffffffffffffffffffffffffffffffffff16148061108457506110838161107e6129dc565b61265d565b5b6110d9576040517f08c379a00000000000000000000000000000000000000000000000000000000081526004018080602001828103825260388152602001806141556038913960400191505060405180910390fd5b6110e38383612a01565b505050565b600a60149054906101000a900460ff161561110257600080fd5b61110c600b612965565b821115611181576040517f08c379a00000000000000000000000000000000000000000000000000000000081526004018080602001828103825260168152602001807f746f6b656e496420646f6573206e6f742065786973740000000000000000000081525060200191505060405180910390fd5b3373ffffffffffffffffffffffffffffffffffffffff166111a183611532565b73ffffffffffffffffffffffffffffffffffffffff161461122a576040517f08c379a00000000000000000000000000000000000000000000000000000000081526004018080602001828103825260188152602001807f796f752073686f756c64206f776e2074686520746f6b656e000000000000000081525060200191505060405180910390fd5b60008111611283576040517f08c379a000000000000000000000000000000000000000000000000000000000815260040180806020018281038252602181526020018061422e6021913960400191505060405180910390fd5b6000600d60008481526020019081526020016000209050818160030181905550827f7085b73bda2d80ec705825a983c6c1ad6e82fd5ac2d3d1079e05a0d8962ec1a260405160405180910390a2505050565b60006112e16002612aba565b905090565b6112f76112f16129dc565b82612acf565b61134c576040517f08c379a00000000000000000000000000000000000000000000000000000000081526004018080602001828103825260318152602001806142c86031913960400191505060405180910390fd5b611357838383612bc3565b505050565b600c818154811061136c57600080fd5b906000526020600020016000915090505481565b60006113d382600160008673ffffffffffffffffffffffffffffffffffffffff1673ffffffffffffffffffffffffffffffffffffffff168152602001908152602001600020612cea90919063ffffffff16565b905092915050565b6113f683838360405180602001604052806000815250611b00565b505050565b6114036129dc565b73ffffffffffffffffffffffffffffffffffffffff16600a60009054906101000a900473ffffffffffffffffffffffffffffffffffffffff1673ffffffffffffffffffffffffffffffffffffffff16146114c5576040517f08c379a00000000000000000000000000000000000000000000000000000000081526004018080602001828103825260208152602001807f4f776e61626c653a2063616c6c6572206973206e6f7420746865206f776e657281525060200191505060405180910390fd5b8073ffffffffffffffffffffffffffffffffffffffff166108fc479081150290604051600060405180830381858888f1935050505015801561150b573d6000803e3d6000fd5b5050565b600080611526836002612d0490919063ffffffff16565b50905080915050919050565b6000611562826040518060600160405280602981526020016141b7602991396002612d309092919063ffffffff16565b9050919050565b606060098054600181600116156101000203166002900480601f0160208091040260200160405190810160405280929190818152602001828054600181600116156101000203166002900480156116015780601f106115d657610100808354040283529160200191611601565b820191906000526020600020905b8154815290600101906020018083116115e457829003601f168201915b5050505050905090565b60008073ffffffffffffffffffffffffffffffffffffffff168273ffffffffffffffffffffffffffffffffffffffff161415611692576040517f08c379a000000000000000000000000000000000000000000000000000000000815260040180806020018281038252602a81526020018061418d602a913960400191505060405180910390fd5b6116d9600160008473ffffffffffffffffffffffffffffffffffffffff1673ffffffffffffffffffffffffffffffffffffffff168152602001908152602001600020612d4f565b9050919050565b6116e86129dc565b73ffffffffffffffffffffffffffffffffffffffff16600a60009054906101000a900473ffffffffffffffffffffffffffffffffffffffff1673ffffffffffffffffffffffffffffffffffffffff16146117aa576040517f08c379a00000000000000000000000000000000000000000000000000000000081526004018080602001828103825260208152602001807f4f776e61626c653a2063616c6c6572206973206e6f7420746865206f776e657281525060200191505060405180910390fd5b600073ffffffffffffffffffffffffffffffffffffffff16600a60009054906101000a900473ffffffffffffffffffffffffffffffffffffffff1673ffffffffffffffffffffffffffffffffffffffff167f8be0079c531659141344cd1fd0a4f28419497f9722a3daafe3b4186f6b6457e060405160405180910390a36000600a60006101000a81548173ffffffffffffffffffffffffffffffffffffffff021916908373ffffffffffffffffffffffffffffffffffffffff160217905550565b600a60149054906101000a900460ff1681565b6000600a60009054906101000a900473ffffffffffffffffffffffffffffffffffffffff16905090565b606060078054600181600116156101000203166002900480601f0160208091040260200160405190810160405280929190818152602001828054600181600116156101000203166002900480156119405780601f1061191557610100808354040283529160200191611940565b820191906000526020600020905b81548152906001019060200180831161192357829003601f168201915b5050505050905090565b6119526129dc565b73ffffffffffffffffffffffffffffffffffffffff168273ffffffffffffffffffffffffffffffffffffffff1614156119f3576040517f08c379a00000000000000000000000000000000000000000000000000000000081526004018080602001828103825260198152602001807f4552433732313a20617070726f766520746f2063616c6c65720000000000000081525060200191505060405180910390fd5b8060056000611a006129dc565b73ffffffffffffffffffffffffffffffffffffffff1673ffffffffffffffffffffffffffffffffffffffff16815260200190815260200160002060008473ffffffffffffffffffffffffffffffffffffffff1673ffffffffffffffffffffffffffffffffffffffff16815260200190815260200160002060006101000a81548160ff0219169083151502179055508173ffffffffffffffffffffffffffffffffffffffff16611aad6129dc565b73ffffffffffffffffffffffffffffffffffffffff167f17307eab39ab6107e8899845ad3d59bd9653f200f220920489ca2b5937696c318360405180821515815260200191505060405180910390a35050565b611b11611b0b6129dc565b83612acf565b611b66576040517f08c379a00000000000000000000000000000000000000000000000000000000081526004018080602001828103825260318152602001806142c86031913960400191505060405180910390fd5b611b7284848484612d64565b50505050565b6000611b826129dc565b73ffffffffffffffffffffffffffffffffffffffff16600a60009054906101000a900473ffffffffffffffffffffffffffffffffffffffff1673ffffffffffffffffffffffffffffffffffffffff1614611c44576040517f08c379a00000000000000000000000000000000000000000000000000000000081526004018080602001828103825260208152602001807f4f776e61626c653a2063616c6c6572206973206e6f7420746865206f776e657281525060200191505060405180910390fd5b6000600a60146101000a81548160ff021916908315150217905550600a60149054906101000a900460ff16905090565b6060611c7f826129e4565b611cd4576040517f08c379a000000000000000000000000000000000000000000000000000000000815260040180806020018281038252602f815260200180614278602f913960400191505060405180910390fd5b6060600860008481526020019081526020016000208054600181600116156101000203166002900480601f016020809104026020016040519081016040528092919081815260200182805460018160011615610100020316600290048015611d7d5780601f10611d5257610100808354040283529160200191611d7d565b820191906000526020600020905b815481529060010190602001808311611d6057829003601f168201915b50505050509050600060098054600181600116156101000203166002900490501415611dac5780915050611f58565b600081511115611e85576009816040516020018083805460018160011615610100020316600290048015611e175780601f10611df5576101008083540402835291820191611e17565b820191906000526020600020905b815481529060010190602001808311611e03575b505082805190602001908083835b60208310611e485780518252602082019150602081019050602083039250611e25565b6001836020036101000a03801982511681845116808217855250505050505090500192505050604051602081830303815290604052915050611f58565b6009611e9084612dd6565b6040516020018083805460018160011615610100020316600290048015611eee5780601f10611ecc576101008083540402835291820191611eee565b820191906000526020600020905b815481529060010190602001808311611eda575b505082805190602001908083835b60208310611f1f5780518252602082019150602081019050602083039250611efc565b6001836020036101000a038019825116818451168082178552505050505050905001925050506040516020818303038152906040529150505b919050565b600a60149054906101000a900460ff1615611f7757600080fd5b611f81600b612965565b811115611ff6576040517f08c379a00000000000000000000000000000000000000000000000000000000081526004018080602001828103825260168152602001807f746f6b656e496420646f6573206e6f742065786973740000000000000000000081525060200191505060405180910390fd5b600061200182611532565b90503373ffffffffffffffffffffffffffffffffffffffff168173ffffffffffffffffffffffffffffffffffffffff1614156120a5576040517f08c379a000000000000000000000000000000000000000000000000000000000815260040180806020018281038252601d8152602001807f796f752063616e27742062757920796f7572206f776e20746f6b656e2100000081525060200191505060405180910390fd5b6000600d600084815260200190815260200160002090506000816001015411612136576040517f08c379a00000000000000000000000000000000000000000000000000000000081526004018080602001828103825260138152602001807f6269726420646f6573206e6f742065786973740000000000000000000000000081525060200191505060405180910390fd5b600081600301549050803410156121b5576040517f08c379a00000000000000000000000000000000000000000000000000000000081526004018080602001828103825260158152602001807f6d696e696d756d207072696365206e6f74206d6574000000000000000000000081525060200191505060405180910390fd5b600082600301819055506121ca833386612bc3565b3073ffffffffffffffffffffffffffffffffffffffff168373ffffffffffffffffffffffffffffffffffffffff1614612245578273ffffffffffffffffffffffffffffffffffffffff166108fc829081150290604051600060405180830381858888f19350505050158015612243573d6000803e3d6000fd5b505b50505050565b6000600a60149054906101000a900460ff161561226757600080fd5b3373ffffffffffffffffffffffffffffffffffffffff1661228784611532565b73ffffffffffffffffffffffffffffffffffffffff1614612310576040517f08c379a000000000000000000000000000000000000000000000000000000000815260040180806020018281038252601a8152602001807f796f752073686f756c64206f776e20626f746820746f6b656e7300000000000081525060200191505060405180910390fd5b3373ffffffffffffffffffffffffffffffffffffffff1661233083611532565b73ffffffffffffffffffffffffffffffffffffffff16146123b9576040517f08c379a000000000000000000000000000000000000000000000000000000000815260040180806020018281038252601a8152602001807f796f752073686f756c64206f776e20626f746820746f6b656e7300000000000081525060200191505060405180910390fd5b6123c1614032565b600d60008581526020019081526020016000206040518060800160405290816000820160009054906101000a900463ffffffff1663ffffffff1663ffffffff168152602001600182015481526020016002820160009054906101000a900461ffff1661ffff1661ffff1681526020016003820154815250509050612443614032565b600d60008581526020019081526020016000206040518060800160405290816000820160009054906101000a900463ffffffff1663ffffffff1663ffffffff168152602001600182015481526020016002820160009054906101000a900461ffff1661ffff1661ffff168152602001600382015481525050905060006124d9836040015161ffff16836040015161ffff16612f1d565b905060006001820190508161ffff168161ffff1611612560576040517f08c379a000000000000000000000000000000000000000000000000000000000815260040180806020018281038252601a8152602001807f6e6f206e65772067656e65726174696f6e20706f737369626c6500000000000081525060200191505060405180910390fd5b61256b816002612f37565b6125dd576040517f08c379a000000000000000000000000000000000000000000000000000000000815260040180806020018281038252601c8152602001807f6e6f206d6f72652066726f6d20746869732067656e65726174696f6e0000000081525060200191505060405180910390fd5b6000806125f286600001518660000151612f85565b809250819350505060006126113084438761260c8961302f565b6130a5565b9050807f7085b73bda2d80ec705825a983c6c1ad6e82fd5ac2d3d1079e05a0d8962ec1a260405160405180910390a261264e3383438760006130a5565b97505050505050505092915050565b6000600560008473ffffffffffffffffffffffffffffffffffffffff1673ffffffffffffffffffffffffffffffffffffffff16815260200190815260200160002060008373ffffffffffffffffffffffffffffffffffffffff1673ffffffffffffffffffffffffffffffffffffffff16815260200190815260200160002060009054906101000a900460ff16905092915050565b600d6020528060005260406000206000915090508060000160009054906101000a900463ffffffff16908060010154908060020160009054906101000a900461ffff16908060030154905084565b6127476129dc565b73ffffffffffffffffffffffffffffffffffffffff16600a60009054906101000a900473ffffffffffffffffffffffffffffffffffffffff1673ffffffffffffffffffffffffffffffffffffffff1614612809576040517f08c379a00000000000000000000000000000000000000000000000000000000081526004018080602001828103825260208152602001807f4f776e61626c653a2063616c6c6572206973206e6f7420746865206f776e657281525060200191505060405180910390fd5b600073ffffffffffffffffffffffffffffffffffffffff168173ffffffffffffffffffffffffffffffffffffffff16141561288f576040517f08c379a00000000000000000000000000000000000000000000000000000000081526004018080602001828103825260268152602001806140b96026913960400191505060405180910390fd5b8073ffffffffffffffffffffffffffffffffffffffff16600a60009054906101000a900473ffffffffffffffffffffffffffffffffffffffff1673ffffffffffffffffffffffffffffffffffffffff167f8be0079c531659141344cd1fd0a4f28419497f9722a3daafe3b4186f6b6457e060405160405180910390a380600a60006101000a81548173ffffffffffffffffffffffffffffffffffffffff021916908373ffffffffffffffffffffffffffffffffffffffff16021790555050565b6001816000016000828254019250508190555050565b600081600001549050919050565b6000612985836000018360001b6131c8565b905092915050565b60006129b9846000018460001b8473ffffffffffffffffffffffffffffffffffffffff1660001b613238565b90509392505050565b60006129d4836000018360001b613314565b905092915050565b600033905090565b60006129fa8260026129c290919063ffffffff16565b9050919050565b816004600083815260200190815260200160002060006101000a81548173ffffffffffffffffffffffffffffffffffffffff021916908373ffffffffffffffffffffffffffffffffffffffff160217905550808273ffffffffffffffffffffffffffffffffffffffff16612a7483611532565b73ffffffffffffffffffffffffffffffffffffffff167f8c5be1e5ebec7d5bd14f71427d1e84f3dd0314c0f7b2291e5b200ac8c7c3b92560405160405180910390a45050565b6000612ac882600001613337565b9050919050565b6000612ada826129e4565b612b2f576040517f08c379a000000000000000000000000000000000000000000000000000000000815260040180806020018281038252602c815260200180614129602c913960400191505060405180910390fd5b6000612b3a83611532565b90508073ffffffffffffffffffffffffffffffffffffffff168473ffffffffffffffffffffffffffffffffffffffff161480612ba957508373ffffffffffffffffffffffffffffffffffffffff16612b9184610f09565b73ffffffffffffffffffffffffffffffffffffffff16145b80612bba5750612bb9818561265d565b5b91505092915050565b600a60149054906101000a900460ff1615612bdd57600080fd5b612be5614032565b600d60008381526020019081526020016000206040518060800160405290816000820160009054906101000a900463ffffffff1663ffffffff1663ffffffff168152602001600182015481526020016002820160009054906101000a900461ffff1661ffff1661ffff16815260200160038201548152505090506000816060015114612cd9576040517f08c379a00000000000000000000000000000000000000000000000000000000081526004018080602001828103825260168152602001807f626972642063616e277420626520666f722073616c650000000000000000000081525060200191505060405180910390fd5b612ce4848484613348565b50505050565b6000612cf9836000018361358b565b60001c905092915050565b600080600080612d17866000018661360e565b915091508160001c8160001c9350935050509250929050565b6000612d43846000018460001b846136a7565b60001c90509392505050565b6000612d5d8260000161379d565b9050919050565b612d6f848484612bc3565b612d7b848484846137ae565b612dd0576040517f08c379a00000000000000000000000000000000000000000000000000000000081526004018080602001828103825260328152602001806140876032913960400191505060405180910390fd5b50505050565b60606000821415612e1e576040518060400160405280600181526020017f30000000000000000000000000000000000000000000000000000000000000008152509050612f18565b600082905060005b60008214612e48578080600101915050600a8281612e4057fe5b049150612e26565b60608167ffffffffffffffff81118015612e6157600080fd5b506040519080825280601f01601f191660200182016040528015612e945781602001600182028036833780820191505090505b50905060006001830390508593505b60008414612f1057600a8481612eb557fe5b0660300160f81b82828060019003935081518110612ecf57fe5b60200101907effffffffffffffffffffffffffffffffffffffffffffffffffffffffffffff1916908160001a905350600a8481612f0857fe5b049350612ea3565b819450505050505b919050565b600081831015612f2d5781612f2f565b825b905092915050565b6000612f4383836139c7565b15612f7a5781600c8461ffff1681548110612f5a57fe5b906000526020600020016000828254039250508190555060019050612f7f565b600090505b92915050565b600080600060108563ffffffff16901c9050600060108663ffffffff16901b9050600060108663ffffffff16901c9050600060108763ffffffff16901b9050600081850190506000838501905060005b601081101561301b5760006001905060208242901c81612ff157fe5b0663ffffffff168163ffffffff16901b905080841893508083189250508080600101915050612fd5565b508181975097505050505050509250929050565b6000806000905060006611c37937e080009050600060068561ffff168161305257fe5b0661ffff169050600081141561306c578183019250613081565b60028102600c03828161307b57fe5b04830192505b8461ffff166509184e72a0000265ffffffffffff1683019250829350505050919050565b6000600a60149054906101000a900460ff16156130c157600080fd5b6130cb600b61294f565b60006130d7600b612965565b90506130e38782613a36565b6130eb614032565b60405180608001604052808863ffffffff1681526020018781526020018661ffff16815260200185815250905080600d600084815260200190815260200160002060008201518160000160006101000a81548163ffffffff021916908363ffffffff1602179055506020820151816001015560408201518160020160006101000a81548161ffff021916908361ffff16021790555060608201518160030155905050817f713ad25e84dd3b7e8337a7521bf97d01dd45f186d9cf6079c980eb5e7ccfb22760405160405180910390a2819250505095945050505050565b60006131d48383613c2a565b61322d578260000182908060018154018082558091505060019003906000526020600020016000909190919091505582600001805490508360010160008481526020019081526020016000208190555060019050613232565b600090505b92915050565b60008084600101600085815260200190815260200160002054905060008114156132df5784600001604051806040016040528086815260200185815250908060018154018082558091505060019003906000526020600020906002020160009091909190915060008201518160000155602082015181600101555050846000018054905085600101600086815260200190815260200160002081905550600191505061330d565b828560000160018303815481106132f257fe5b90600052602060002090600202016001018190555060009150505b9392505050565b600080836001016000848152602001908152602001600020541415905092915050565b600081600001805490509050919050565b8273ffffffffffffffffffffffffffffffffffffffff1661336882611532565b73ffffffffffffffffffffffffffffffffffffffff16146133d4576040517f08c379a000000000000000000000000000000000000000000000000000000000815260040180806020018281038252602981526020018061424f6029913960400191505060405180910390fd5b600073ffffffffffffffffffffffffffffffffffffffff168273ffffffffffffffffffffffffffffffffffffffff16141561345a576040517f08c379a00000000000000000000000000000000000000000000000000000000081526004018080602001828103825260248152602001806140df6024913960400191505060405180910390fd5b613465838383613c4d565b613470600082612a01565b6134c181600160008673ffffffffffffffffffffffffffffffffffffffff1673ffffffffffffffffffffffffffffffffffffffff168152602001908152602001600020613c5290919063ffffffff16565b5061351381600160008573ffffffffffffffffffffffffffffffffffffffff1673ffffffffffffffffffffffffffffffffffffffff16815260200190815260200160002061297390919063ffffffff16565b5061352a8183600261298d9092919063ffffffff16565b50808273ffffffffffffffffffffffffffffffffffffffff168473ffffffffffffffffffffffffffffffffffffffff167fddf252ad1be2c89b69c2b068fc378daa952ba7f163c4a11628f55a4df523b3ef60405160405180910390a4505050565b6000818360000180549050116135ec576040517f08c379a00000000000000000000000000000000000000000000000000000000081526004018080602001828103825260228152602001806140656022913960400191505060405180910390fd5b8260000182815481106135fb57fe5b9060005260206000200154905092915050565b60008082846000018054905011613670576040517f08c379a00000000000000000000000000000000000000000000000000000000081526004018080602001828103825260228152602001806141e06022913960400191505060405180910390fd5b600084600001848154811061368157fe5b906000526020600020906002020190508060000154816001015492509250509250929050565b6000808460010160008581526020019081526020016000205490506000811415839061376e576040517f08c379a00000000000000000000000000000000000000000000000000000000081526004018080602001828103825283818151815260200191508051906020019080838360005b83811015613733578082015181840152602081019050613718565b50505050905090810190601f1680156137605780820380516001836020036101000a031916815260200191505b509250505060405180910390fd5b5084600001600182038154811061378157fe5b9060005260206000209060020201600101549150509392505050565b600081600001805490509050919050565b60006137cf8473ffffffffffffffffffffffffffffffffffffffff16613c6c565b6137dc57600190506139bf565b606061394663150b7a0260e01b6137f16129dc565b888787604051602401808573ffffffffffffffffffffffffffffffffffffffff1681526020018473ffffffffffffffffffffffffffffffffffffffff16815260200183815260200180602001828103825283818151815260200191508051906020019080838360005b8381101561387557808201518184015260208101905061385a565b50505050905090810190601f1680156138a25780820380516001836020036101000a031916815260200191505b5095505050505050604051602081830303815290604052907bffffffffffffffffffffffffffffffffffffffffffffffffffffffff19166020820180517bffffffffffffffffffffffffffffffffffffffffffffffffffffffff8381831617835250505050604051806060016040528060328152602001614087603291398773ffffffffffffffffffffffffffffffffffffffff16613c7f9092919063ffffffff16565b9050600081806020019051602081101561395f57600080fd5b8101908080519060200190929190505050905063150b7a0260e01b7bffffffffffffffffffffffffffffffffffffffffffffffffffffffff1916817bffffffffffffffffffffffffffffffffffffffffffffffffffffffff191614925050505b949350505050565b60006001600c80549050038361ffff161115613a0f57600c6139e884613c97565b90806001815401808255809150506001900390600052602060002001600090919091909150555b81600c8461ffff1681548110613a2157fe5b90600052602060002001541015905092915050565b600073ffffffffffffffffffffffffffffffffffffffff168273ffffffffffffffffffffffffffffffffffffffff161415613ad9576040517f08c379a00000000000000000000000000000000000000000000000000000000081526004018080602001828103825260208152602001807f4552433732313a206d696e7420746f20746865207a65726f206164647265737381525060200191505060405180910390fd5b613ae2816129e4565b15613b55576040517f08c379a000000000000000000000000000000000000000000000000000000000815260040180806020018281038252601c8152602001807f4552433732313a20746f6b656e20616c7265616479206d696e7465640000000081525060200191505060405180910390fd5b613b6160008383613c4d565b613bb281600160008573ffffffffffffffffffffffffffffffffffffffff1673ffffffffffffffffffffffffffffffffffffffff16815260200190815260200160002061297390919063ffffffff16565b50613bc98183600261298d9092919063ffffffff16565b50808273ffffffffffffffffffffffffffffffffffffffff16600073ffffffffffffffffffffffffffffffffffffffff167fddf252ad1be2c89b69c2b068fc378daa952ba7f163c4a11628f55a4df523b3ef60405160405180910390a45050565b600080836001016000848152602001908152602001600020541415905092915050565b505050565b6000613c64836000018360001b613cd5565b905092915050565b600080823b905060008111915050919050565b6060613c8e8484600085613dbd565b90509392505050565b60008060068361ffff1681613ca857fe5b0661ffff1690506000811415613cc257601e915050613cd0565b60028102600c03601e029150505b919050565b60008083600101600084815260200190815260200160002054905060008114613db15760006001820390506000600186600001805490500390506000866000018281548110613d2057fe5b9060005260206000200154905080876000018481548110613d3d57fe5b9060005260206000200181905550600183018760010160008381526020019081526020016000208190555086600001805480613d7557fe5b60019003818190600052602060002001600090559055866001016000878152602001908152602001600020600090556001945050505050613db7565b60009150505b92915050565b606082471015613e18576040517f08c379a00000000000000000000000000000000000000000000000000000000081526004018080602001828103825260268152602001806141036026913960400191505060405180910390fd5b613e2185613c6c565b613e93576040517f08c379a000000000000000000000000000000000000000000000000000000000815260040180806020018281038252601d8152602001807f416464726573733a2063616c6c20746f206e6f6e2d636f6e747261637400000081525060200191505060405180910390fd5b600060608673ffffffffffffffffffffffffffffffffffffffff1685876040518082805190602001908083835b60208310613ee35780518252602082019150602081019050602083039250613ec0565b6001836020036101000a03801982511681845116808217855250505050505090500191505060006040518083038185875af1925050503d8060008114613f45576040519150601f19603f3d011682016040523d82523d6000602084013e613f4a565b606091505b5091509150613f5a828286613f66565b92505050949350505050565b60608315613f765782905061402b565b600083511115613f895782518084602001fd5b816040517f08c379a00000000000000000000000000000000000000000000000000000000081526004018080602001828103825283818151815260200191508051906020019080838360005b83811015613ff0578082015181840152602081019050613fd5565b50505050905090810190601f16801561401d5780820380516001836020036101000a031916815260200191505b509250505060405180910390fd5b9392505050565b6040518060800160405280600063ffffffff16815260200160008152602001600061ffff16815260200160008152509056fe456e756d657261626c655365743a20696e646578206f7574206f6620626f756e64734552433732313a207472616e7366657220746f206e6f6e20455243373231526563656976657220696d706c656d656e7465724f776e61626c653a206e6577206f776e657220697320746865207a65726f20616464726573734552433732313a207472616e7366657220746f20746865207a65726f2061646472657373416464726573733a20696e73756666696369656e742062616c616e636520666f722063616c6c4552433732313a206f70657261746f7220717565727920666f72206e6f6e6578697374656e7420746f6b656e4552433732313a20617070726f76652063616c6c6572206973206e6f74206f776e6572206e6f7220617070726f76656420666f7220616c6c4552433732313a2062616c616e636520717565727920666f7220746865207a65726f20616464726573734552433732313a206f776e657220717565727920666f72206e6f6e6578697374656e7420746f6b656e456e756d657261626c654d61703a20696e646578206f7574206f6620626f756e64734552433732313a20617070726f76656420717565727920666f72206e6f6e6578697374656e7420746f6b656e70726963652073686f756c642062652067726561746572207468616e207a65726f4552433732313a207472616e73666572206f6620746f6b656e2074686174206973206e6f74206f776e4552433732314d657461646174613a2055524920717565727920666f72206e6f6e6578697374656e7420746f6b656e4552433732313a20617070726f76616c20746f2063757272656e74206f776e65724552433732313a207472616e736665722063616c6c6572206973206e6f74206f776e6572206e6f7220617070726f766564a26469706673582212208b510015f1a5163c7a51b56cbc5b2f3d1b0e88a096435730365cb9031e6f428764736f6c63430007050033",
  "immutableReferences": {},
  "source": "// contracts/CryptoBirds.sol\n// SPDX-License-Identifier: MIT\npragma solidity >=0.6.0;\n\nimport \"@openzeppelin/contracts/token/ERC721/ERC721.sol\";\nimport \"@openzeppelin/contracts/math/Math.sol\";\nimport \"@openzeppelin/contracts/utils/Counters.sol\";\nimport \"./Stoppable.sol\";\n\ncontract CryptoBirds is ERC721, Stoppable {\n\n    using Counters for Counters.Counter;\n    Counters.Counter private _tokenIds;\n\n    uint[] public generationsPopulation;\n    \n    struct CryptoBird {\n        uint32 gene;\n        uint256 birth;\n        uint16 generation;\n        uint256 price;\n    }\n    mapping (uint256 => CryptoBird) public birds;\n\n    event NewCryptoBird(uint256 indexed tokenId);\n    event CryptoBirdAvailableForSale(uint256 indexed tokenId);\n\n    constructor() ERC721(\"CryptoBirds\", \"CBRDS\")\n    {\n        generationsPopulation.push(_calculateGenerationCount(0));\n        _unleashGeneration(0, 30);\n\n        uint32 _gene = uint32(uint(keccak256(abi.encodePacked(\"Genesis\", block.number))));\n        for (uint i = 0; i < 30; i++) {\n            uint256 _newCryptoBirdTokenId = _mintNewCryptoBird(\n                address(this),\n                _gene,\n                block.number,\n                0,\n                _calculateBasePriceByGeneration(0)\n            );\n            emit CryptoBirdAvailableForSale(_newCryptoBirdTokenId);\n            _gene = uint32(uint(keccak256(abi.encodePacked(_gene))));\n        }\n    }\n\n    function _mintNewCryptoBird(address _owner, uint32 _gene, uint256 _birth, uint16 _generation, uint256 _price)\n    internal stoppable returns (uint256)\n    {\n        _tokenIds.increment();\n        uint256 newTokenId = _tokenIds.current();\n        _mint(_owner, newTokenId);\n\n        CryptoBird memory _newCryptoBird = CryptoBird({\n            gene: _gene,\n            birth: _birth,\n            generation: _generation,\n            price: _price\n        });\n        birds[newTokenId] =_newCryptoBird;\n\n        emit NewCryptoBird(newTokenId);\n\n        return newTokenId;\n    }\n\n    function buy(uint256 _tokenId)\n    public payable stoppable\n    {\n        require(_tokenId <= _tokenIds.current(), \"tokenId does not exist\");\n\n        address _currentOwner = ownerOf(_tokenId);\n        require(_currentOwner != msg.sender, \"you can't buy your own token!\");\n\n        CryptoBird storage _cryptoBird = birds[_tokenId];\n        require(_cryptoBird.birth > 0, \"bird does not exist\");\n\n        uint256 _currentPirce = _cryptoBird.price;\n        require(msg.value >= _currentPirce, \"minimum price not met\");\n\n        _cryptoBird.price = 0;\n        _transfer(_currentOwner, msg.sender, _tokenId);\n\n        if (_currentOwner != address(this)) {\n            payable(_currentOwner).transfer(_currentPirce);\n        }\n    }\n\n    function breed(uint256 _firstBirdTokenId, uint256 _secondBirdTokenId)\n    public stoppable returns (uint256)\n    {\n        require(ownerOf(_firstBirdTokenId) == msg.sender, \"you should own both tokens\");\n        require(ownerOf(_secondBirdTokenId) == msg.sender, \"you should own both tokens\");\n\n        CryptoBird memory _firstBird = birds[_firstBirdTokenId];\n        CryptoBird memory _secondBird = birds[_secondBirdTokenId];\n\n        uint16 _maxGeneration = uint16(Math.max(_firstBird.generation, _secondBird.generation));\n        uint16 _newGeneration = _maxGeneration + 1;\n        require(_newGeneration > _maxGeneration, \"no new generation possible\");\n\n        require(_unleashGeneration(_newGeneration, 2), \"no more from this generation\");\n\n        uint32 _firstGene;\n        uint32 _secondGene;\n        (_firstGene, _secondGene) = _offspringGenes(_firstBird.gene, _secondBird.gene);\n\n        uint256 _newCryptoBirdTokenId = _mintNewCryptoBird(\n            address(this),\n            _firstGene,\n            block.number,\n            _newGeneration,\n            _calculateBasePriceByGeneration(_newGeneration)\n        );\n        emit CryptoBirdAvailableForSale(_newCryptoBirdTokenId);\n\n        return _mintNewCryptoBird(\n            msg.sender,\n            _secondGene,\n            block.number,\n            _newGeneration,\n            0\n        );\n    }\n\n    function _offspringGenes(uint32 _firstGene, uint32 _secondGene)\n    internal view returns (uint32, uint32)\n    {\n        uint32 _firstGeneFirstHalf = uint32(_firstGene >> 16);\n        uint32 _firstGeneSecondHalf = uint32(_firstGene << 16);\n        uint32 _secondGeneFirstHalf = uint32(_secondGene >> 16);\n        uint32 _secondGeneSecondHalf = uint32(_secondGene << 16);\n\n        uint32 _firstOffspring = _firstGeneFirstHalf + _secondGeneSecondHalf;\n        uint32 _secondOffspring = _firstGeneSecondHalf + _secondGeneFirstHalf;\n\n        for (uint256 i = 0; i < 16; i++) {\n            uint32 mutation = 1;\n            mutation = mutation << uint32((block.timestamp >> i) % 32);\n            _firstOffspring = _firstOffspring ^ mutation;\n            _secondOffspring = _secondOffspring ^ mutation;\n        }\n\n        return (_firstOffspring, _secondOffspring);\n    }\n\n    function _calculateGenerationCount(uint16 _generation)\n    internal pure returns (uint)\n    {\n        uint indicator = _generation % 6;\n        if (indicator == 0) {\n            return 30;\n        }\n\n        return 30 * (12 - (indicator * 2));\n    }\n\n    function _canGenerate(uint16 _generation, uint _count)\n    internal returns (bool)\n    {\n        if (_generation > generationsPopulation.length - 1) {\n            generationsPopulation.push(_calculateGenerationCount(_generation));\n        }\n        \n        return (generationsPopulation[_generation] >= _count);\n    }\n\n    function _unleashGeneration(uint16 _generation, uint _count)\n    internal returns (bool)\n    {\n        if (_canGenerate(_generation, _count)) {\n            generationsPopulation[_generation] -= _count;\n            return true;\n        }\n        return false;\n    }\n\n    function _calculateBasePriceByGeneration(uint16 _generation) \n    internal pure returns (uint256)\n    {\n        uint256 finalPrice = 0;\n        uint256 basePrice = 0.005 ether;\n        uint indicator = _generation % 6;\n        if (indicator == 0) {\n            finalPrice += basePrice;\n        } else {\n            finalPrice += basePrice / (12 - (indicator * 2));\n        }\n        finalPrice += 0.00001 ether * _generation;\n        return finalPrice;\n    }\n\n    function _transfer(address from, address to, uint256 tokenId)\n    override internal stoppable\n    {\n        CryptoBird memory _bird = birds[tokenId];\n        require(_bird.price == 0, \"bird can't be for sale\");\n        super._transfer(from, to, tokenId);\n    }\n\n    function setForSale(uint256 _tokenId, uint256 _price)\n    public stoppable\n    {\n        require(_tokenId <= _tokenIds.current(), \"tokenId does not exist\");\n        require(ownerOf(_tokenId) == msg.sender, \"you should own the token\");\n        require(_price > 0, \"price should be greater than zero\");\n\n        CryptoBird storage _cryptoBird = birds[_tokenId];\n        _cryptoBird.price = _price;\n\n        emit CryptoBirdAvailableForSale(_tokenId);\n    }\n\n    \n\n    function redeemAllBalance(address payable _desiredAddress)\n    external onlyOwner\n    {\n        _desiredAddress.transfer(address(this).balance);\n    }\n}",
  "sourcePath": "/home/sanaz/Desktop/Consensys/reactTst/contracts/CryptoBirds.sol",
  "compiler": {
    "name": "solc",
    "version": "0.7.5+commit.eb77ed08.Emscripten.clang"
  },
  "schemaVersion": "3.3.2",
  "updatedAt": "2020-12-15T19:00:09.820Z",
  "networkType": "ethereum",
  "devdoc": {
    "kind": "dev",
    "methods": {
      "approve(address,uint256)": {
        "details": "See {IERC721-approve}."
      },
      "balanceOf(address)": {
        "details": "See {IERC721-balanceOf}."
      },
      "baseURI()": {
        "details": "Returns the base URI set via {_setBaseURI}. This will be automatically added as a prefix in {tokenURI} to each token's URI, or to the token ID if no specific URI is set for that token ID."
      },
      "getApproved(uint256)": {
        "details": "See {IERC721-getApproved}."
      },
      "isApprovedForAll(address,address)": {
        "details": "See {IERC721-isApprovedForAll}."
      },
      "name()": {
        "details": "See {IERC721Metadata-name}."
      },
      "owner()": {
        "details": "Returns the address of the current owner."
      },
      "ownerOf(uint256)": {
        "details": "See {IERC721-ownerOf}."
      },
      "renounceOwnership()": {
        "details": "Leaves the contract without owner. It will not be possible to call `onlyOwner` functions anymore. Can only be called by the current owner. NOTE: Renouncing ownership will leave the contract without an owner, thereby removing any functionality that is only available to the owner."
      },
      "safeTransferFrom(address,address,uint256)": {
        "details": "See {IERC721-safeTransferFrom}."
      },
      "safeTransferFrom(address,address,uint256,bytes)": {
        "details": "See {IERC721-safeTransferFrom}."
      },
      "setApprovalForAll(address,bool)": {
        "details": "See {IERC721-setApprovalForAll}."
      },
      "supportsInterface(bytes4)": {
        "details": "See {IERC165-supportsInterface}. Time complexity O(1), guaranteed to always use less than 30 000 gas."
      },
      "symbol()": {
        "details": "See {IERC721Metadata-symbol}."
      },
      "tokenByIndex(uint256)": {
        "details": "See {IERC721Enumerable-tokenByIndex}."
      },
      "tokenOfOwnerByIndex(address,uint256)": {
        "details": "See {IERC721Enumerable-tokenOfOwnerByIndex}."
      },
      "tokenURI(uint256)": {
        "details": "See {IERC721Metadata-tokenURI}."
      },
      "totalSupply()": {
        "details": "See {IERC721Enumerable-totalSupply}."
      },
      "transferFrom(address,address,uint256)": {
        "details": "See {IERC721-transferFrom}."
      },
      "transferOwnership(address)": {
        "details": "Transfers ownership of the contract to a new account (`newOwner`). Can only be called by the current owner."
      }
    },
    "version": 1
  },
  "userdoc": {
    "kind": "user",
    "methods": {},
    "version": 1
  }
}